{
  "transactions": [
    {
      "hash": "0xad013749833d8ce15b0314189b6799c3b3985c307d780542e16191cbd805343e",
      "transactionType": "CREATE",
      "contractName": "Attacker",
      "contractAddress": "0x4A3c50BA5b65F32cC04f38a865C192b4Ae431F2a",
      "function": null,
      "arguments": null,
      "transaction": {
        "type": "0x02",
        "from": "0x64cbc2b36fd9dd66fe016181fabf30167a3818b2",
        "gas": "0x2236a",
        "value": "0x0",
        "data": "0x608060405234801561001057600080fd5b5060fc8061001f6000396000f3fe6080604052348015600f57600080fd5b506004361060285760003560e01c80636c4c174f14602d575b600080fd5b603c60383660046098565b603e565b005b60405163a6f9dae160e01b81523360048201526001600160a01b0382169063a6f9dae190602401600060405180830381600087803b158015607e57600080fd5b505af11580156091573d6000803e3d6000fd5b5050505050565b60006020828403121560a957600080fd5b81356001600160a01b038116811460bf57600080fd5b939250505056fea26469706673582212207d1d4701a26365029e458be6ec67812df05e4714968dcbcdc5f43198ec864f5464736f6c63430008120033",
        "nonce": "0x23",
        "accessList": []
      },
      "additionalContracts": [],
      "isFixedGasLimit": false
    },
    {
      "hash": "0x9ebebd166492a60d48fc9f533b4f35f87cb02c875d4578724c238cb8c47e3100",
      "transactionType": "CALL",
      "contractName": "Attacker",
      "contractAddress": "0x4A3c50BA5b65F32cC04f38a865C192b4Ae431F2a",
      "function": "hack(address)",
      "arguments": [
        "0x75919D579DF08df8345A1C9584a46054EFF54d44"
      ],
      "transaction": {
        "type": "0x02",
        "from": "0x64cbc2b36fd9dd66fe016181fabf30167a3818b2",
        "to": "0x4a3c50ba5b65f32cc04f38a865c192b4ae431f2a",
        "gas": "0xa110",
        "value": "0x0",
        "data": "0x6c4c174f00000000000000000000000075919d579df08df8345a1c9584a46054eff54d44",
        "nonce": "0x24",
        "accessList": []
      },
      "additionalContracts": [],
      "isFixedGasLimit": false
    }
  ],
  "receipts": [
    {
      "transactionHash": "0xad013749833d8ce15b0314189b6799c3b3985c307d780542e16191cbd805343e",
      "transactionIndex": "0x3",
      "blockHash": "0x30d9378612f2349f880de31134c6ac056d9ee6c15166df1edff28b4e2e63f081",
      "blockNumber": "0x2272fab",
      "from": "0x64cBC2b36fd9Dd66Fe016181fABF30167a3818B2",
      "to": null,
      "cumulativeGasUsed": "0x29b2f",
      "gasUsed": "0x1a517",
      "contractAddress": "0x4A3c50BA5b65F32cC04f38a865C192b4Ae431F2a",
      "logs": [
        {
          "address": "0x0000000000000000000000000000000000001010",
          "topics": [
            "0x4dfe1bbbcf077ddc3e01291eea2d5c70c2b422b415d95645b9adcfd678cb1d63",
            "0x0000000000000000000000000000000000000000000000000000000000001010",
            "0x00000000000000000000000064cbc2b36fd9dd66fe016181fabf30167a3818b2",
            "0x0000000000000000000000003a22c8bc68e98b0faf40f349dd2b2890fae01484"
          ],
          "data": "0x0000000000000000000000000000000000000000000000000007a8da35f24ba7000000000000000000000000000000000000000000000000028c00aea7c3bf0f0000000000000000000000000000000000000000000009c75346590cac3f13ac000000000000000000000000000000000000000000000000028457d471d173680000000000000000000000000000000000000000000009c7534e01e6e2315f53",
          "blockHash": "0x30d9378612f2349f880de31134c6ac056d9ee6c15166df1edff28b4e2e63f081",
          "blockNumber": "0x2272fab",
          "transactionHash": "0xad013749833d8ce15b0314189b6799c3b3985c307d780542e16191cbd805343e",
          "transactionIndex": "0x3",
          "logIndex": "0x6",
          "removed": false
        }
      ],
      "status": "0x1",
      "logsBloom": "0x00000000000000000000000000000000000000000000000000000000000000000000000000000000000000000000000000008000000000000000000000008000000000000000000000000000000000800000000000002000000100000000000000000000000000000000000000000000000000000000000080000000000000000000000000000000000000000000000000000000000000000000000000000000200000000000000000080000000000000000000000000000000000000000004000000000000000000001000000000100000000000000000000100000000000000000000000000400000000000000000008000000000000000000000000100000",
      "type": "0x2",
      "effectiveGasPrice": "0x4a817c800"
    },
    {
      "transactionHash": "0x9ebebd166492a60d48fc9f533b4f35f87cb02c875d4578724c238cb8c47e3100",
      "transactionIndex": "0x4",
      "blockHash": "0x30d9378612f2349f880de31134c6ac056d9ee6c15166df1edff28b4e2e63f081",
      "blockNumber": "0x2272fab",
      "from": "0x64cBC2b36fd9Dd66Fe016181fABF30167a3818B2",
      "to": "0x4A3c50BA5b65F32cC04f38a865C192b4Ae431F2a",
      "cumulativeGasUsed": "0x30fcb",
      "gasUsed": "0x749c",
      "contractAddress": null,
      "logs": [
        {
          "address": "0x0000000000000000000000000000000000001010",
          "topics": [
            "0x4dfe1bbbcf077ddc3e01291eea2d5c70c2b422b415d95645b9adcfd678cb1d63",
            "0x0000000000000000000000000000000000000000000000000000000000001010",
            "0x00000000000000000000000064cbc2b36fd9dd66fe016181fabf30167a3818b2",
            "0x0000000000000000000000003a22c8bc68e98b0faf40f349dd2b2890fae01484"
          ],
          "data": "0x00000000000000000000000000000000000000000000000000021f0135170adc000000000000000000000000000000000000000000000000028457d471b8c70f0000000000000000000000000000000000000000000009c7534e01e6e2315f53000000000000000000000000000000000000000000000000028238d33ca1bc330000000000000000000000000000000000000000000009c7535020e817486a2f",
          "blockHash": "0x30d9378612f2349f880de31134c6ac056d9ee6c15166df1edff28b4e2e63f081",
          "blockNumber": "0x2272fab",
          "transactionHash": "0x9ebebd166492a60d48fc9f533b4f35f87cb02c875d4578724c238cb8c47e3100",
          "transactionIndex": "0x4",
          "logIndex": "0x7",
          "removed": false
        }
      ],
      "status": "0x1",
      "logsBloom": "0x00000000000000000000000000000000000000000000000000000000000000000000000000000000000000000000000000008000000000000000000000008000000000000000000000000000000000800000000000002000000100000000000000000000000000000000000000000000000000000000000080000000000000000000000000000000000000000000000000000000000000000000000000000000200000000000000000080000000000000000000000000000000000000000004000000000000000000001000000000100000000000000000000100000000000000000000000000400000000000000000008000000000000000000000000100000",
      "type": "0x2",
      "effectiveGasPrice": "0x4a817c800"
    }
  ],
  "libraries": [],
  "pending": [],
  "returns": {},
  "timestamp": 1685221869,
  "chain": 80001,
  "multi": false,
  "commit": "f4cfccc"
}