{
  "transactions": [
    {
      "hash": "0x81f5bd8e968ee20ec33dfd94b525987fe23d356d8eb139ad3972e10fd5c06b03",
      "transactionType": "CREATE",
      "contractName": "AttackerToken",
      "contractAddress": "0xdC3B5C84E3868328F867294c30cf696c7947Cd69",
      "function": null,
      "arguments": [
        "0x56456228bEb884911fc5f344C5cfb633E087330e"
      ],
      "transaction": {
        "type": "0x02",
        "from": "0x64cbc2b36fd9dd66fe016181fabf30167a3818b2",
        "gas": "0xce04a",
        "value": "0x0",
        "data": "0x60806040523480156200001157600080fd5b5060405162000bef38038062000bef83398101604081905262000034916200019a565b6040518060400160405280600d81526020016c20ba3a30b1b5b2b92a37b5b2b760991b8152506040518060400160405280600381526020016241544b60e81b815250816003908162000087919062000270565b50600462000096828262000270565b5050600580546001600160a01b0319166001600160a01b03841617905550620000c833670de0b6b3a7640000620000cf565b5062000364565b6001600160a01b0382166200012a5760405162461bcd60e51b815260206004820152601f60248201527f45524332303a206d696e7420746f20746865207a65726f206164647265737300604482015260640160405180910390fd5b80600260008282546200013e91906200033c565b90915550506001600160a01b038216600081815260208181526040808320805486019055518481527fddf252ad1be2c89b69c2b068fc378daa952ba7f163c4a11628f55a4df523b3ef910160405180910390a35050565b505050565b600060208284031215620001ad57600080fd5b81516001600160a01b0381168114620001c557600080fd5b9392505050565b634e487b7160e01b600052604160045260246000fd5b600181811c90821680620001f757607f821691505b6020821081036200021857634e487b7160e01b600052602260045260246000fd5b50919050565b601f8211156200019557600081815260208120601f850160051c81016020861015620002475750805b601f850160051c820191505b81811015620002685782815560010162000253565b505050505050565b81516001600160401b038111156200028c576200028c620001cc565b620002a4816200029d8454620001e2565b846200021e565b602080601f831160018114620002dc5760008415620002c35750858301515b600019600386901b1c1916600185901b17855562000268565b600085815260208120601f198616915b828110156200030d57888601518255948401946001909101908401620002ec565b50858210156200032c5787850151600019600388901b60f8161c191681555b5050505050600190811b01905550565b808201808211156200035e57634e487b7160e01b600052601160045260246000fd5b92915050565b61087b80620003746000396000f3fe608060405234801561001057600080fd5b50600436106100a95760003560e01c80633950935111610071578063395093511461012357806370a082311461013657806395d89b4114610149578063a457c2d714610151578063a9059cbb14610164578063dd62ed3e1461017757600080fd5b806306fdde03146100ae578063095ea7b3146100cc57806318160ddd146100ef57806323b872dd14610101578063313ce56714610114575b600080fd5b6100b661018a565b6040516100c391906106c5565b60405180910390f35b6100df6100da36600461072f565b61021c565b60405190151581526020016100c3565b6002545b6040519081526020016100c3565b6100df61010f366004610759565b610236565b604051601281526020016100c3565b6100df61013136600461072f565b61025a565b6100f3610144366004610795565b61027c565b6100b66102bb565b6100df61015f36600461072f565b6102ca565b6100df61017236600461072f565b61034a565b6100f36101853660046107b7565b610358565b606060038054610199906107ea565b80601f01602080910402602001604051908101604052809291908181526020018280546101c5906107ea565b80156102125780601f106101e757610100808354040283529160200191610212565b820191906000526020600020905b8154815290600101906020018083116101f557829003601f168201915b5050505050905090565b60003361022a818585610383565b60019150505b92915050565b6000336102448582856104a7565b61024f858585610521565b506001949350505050565b60003361022a81858561026d8383610358565b6102779190610824565b610383565b6005546000906001600160a01b039081169083160361029d5750600a919050565b6001600160a01b038216600090815260208190526040902054610230565b606060048054610199906107ea565b600033816102d88286610358565b90508381101561033d5760405162461bcd60e51b815260206004820152602560248201527f45524332303a2064656372656173656420616c6c6f77616e63652062656c6f77604482015264207a65726f60d81b60648201526084015b60405180910390fd5b61024f8286868403610383565b60003361022a818585610521565b6001600160a01b03918216600090815260016020908152604080832093909416825291909152205490565b6001600160a01b0383166103e55760405162461bcd60e51b8152602060048201526024808201527f45524332303a20617070726f76652066726f6d20746865207a65726f206164646044820152637265737360e01b6064820152608401610334565b6001600160a01b0382166104465760405162461bcd60e51b815260206004820152602260248201527f45524332303a20617070726f766520746f20746865207a65726f206164647265604482015261737360f01b6064820152608401610334565b6001600160a01b0383811660008181526001602090815260408083209487168084529482529182902085905590518481527f8c5be1e5ebec7d5bd14f71427d1e84f3dd0314c0f7b2291e5b200ac8c7c3b925910160405180910390a3505050565b60006104b38484610358565b9050600019811461051b578181101561050e5760405162461bcd60e51b815260206004820152601d60248201527f45524332303a20696e73756666696369656e7420616c6c6f77616e63650000006044820152606401610334565b61051b8484848403610383565b50505050565b6001600160a01b0383166105855760405162461bcd60e51b815260206004820152602560248201527f45524332303a207472616e736665722066726f6d20746865207a65726f206164604482015264647265737360d81b6064820152608401610334565b6001600160a01b0382166105e75760405162461bcd60e51b815260206004820152602360248201527f45524332303a207472616e7366657220746f20746865207a65726f206164647260448201526265737360e81b6064820152608401610334565b6001600160a01b0383166000908152602081905260409020548181101561065f5760405162461bcd60e51b815260206004820152602660248201527f45524332303a207472616e7366657220616d6f756e7420657863656564732062604482015265616c616e636560d01b6064820152608401610334565b6001600160a01b03848116600081815260208181526040808320878703905593871680835291849020805487019055925185815290927fddf252ad1be2c89b69c2b068fc378daa952ba7f163c4a11628f55a4df523b3ef910160405180910390a361051b565b600060208083528351808285015260005b818110156106f2578581018301518582016040015282016106d6565b506000604082860101526040601f19601f8301168501019250505092915050565b80356001600160a01b038116811461072a57600080fd5b919050565b6000806040838503121561074257600080fd5b61074b83610713565b946020939093013593505050565b60008060006060848603121561076e57600080fd5b61077784610713565b925061078560208501610713565b9150604084013590509250925092565b6000602082840312156107a757600080fd5b6107b082610713565b9392505050565b600080604083850312156107ca57600080fd5b6107d383610713565b91506107e160208401610713565b90509250929050565b600181811c908216806107fe57607f821691505b60208210810361081e57634e487b7160e01b600052602260045260246000fd5b50919050565b8082018082111561023057634e487b7160e01b600052601160045260246000fdfea26469706673582212203faa430e73a4417bd9f6c77676c12dc5781da3f59f3e0b804f27a041f5809da364736f6c6343000812003300000000000000000000000056456228beb884911fc5f344c5cfb633e087330e",
        "nonce": "0xca",
        "accessList": []
      },
      "additionalContracts": [],
      "isFixedGasLimit": false
    },
    {
      "hash": "0xffc1ffe0662fc8d9449d5f061ea5fef33018324069336d8e1e986f90b5999162",
      "transactionType": "CALL",
      "contractName": null,
      "contractAddress": "0x56456228bEb884911fc5f344C5cfb633E087330e",
      "function": "approve(address,uint256):(bool)",
      "arguments": [
        "0x56456228bEb884911fc5f344C5cfb633E087330e",
        "1000000000000000000"
      ],
      "transaction": {
        "type": "0x02",
        "from": "0x64cbc2b36fd9dd66fe016181fabf30167a3818b2",
        "to": "0x56456228beb884911fc5f344c5cfb633e087330e",
        "gas": "0x1ce67",
        "value": "0x0",
        "data": "0x095ea7b300000000000000000000000056456228beb884911fc5f344c5cfb633e087330e0000000000000000000000000000000000000000000000000de0b6b3a7640000",
        "nonce": "0xcb",
        "accessList": []
      },
      "additionalContracts": [],
      "isFixedGasLimit": false
    },
    {
      "hash": "0xa58ec68c7597665a737a52dfca68f64e449bc0be5d12362111094ed3de8f1ca1",
      "transactionType": "CALL",
      "contractName": "AttackerToken",
      "contractAddress": "0xdC3B5C84E3868328F867294c30cf696c7947Cd69",
      "function": "approve(address,uint256):(bool)",
      "arguments": [
        "0x56456228bEb884911fc5f344C5cfb633E087330e",
        "1000000000000000000"
      ],
      "transaction": {
        "type": "0x02",
        "from": "0x64cbc2b36fd9dd66fe016181fabf30167a3818b2",
        "to": "0xdc3b5c84e3868328f867294c30cf696c7947cd69",
        "gas": "0xf998",
        "value": "0x0",
        "data": "0x095ea7b300000000000000000000000056456228beb884911fc5f344c5cfb633e087330e0000000000000000000000000000000000000000000000000de0b6b3a7640000",
        "nonce": "0xcc",
        "accessList": []
      },
      "additionalContracts": [],
      "isFixedGasLimit": false
    },
    {
      "hash": "0x96f0e3f027a7545b06364260a37d4e6fe39cfec1cab2de6c80a9bee8850679ba",
      "transactionType": "CALL",
      "contractName": null,
      "contractAddress": "0x56456228bEb884911fc5f344C5cfb633E087330e",
      "function": null,
      "arguments": null,
      "transaction": {
        "type": "0x02",
        "from": "0x64cbc2b36fd9dd66fe016181fabf30167a3818b2",
        "to": "0x56456228beb884911fc5f344c5cfb633e087330e",
        "gas": "0x1fcbc",
        "value": "0x0",
        "data": "0xdf791e50000000000000000000000000dc3b5c84e3868328f867294c30cf696c7947cd69000000000000000000000000a7a75532701fe006a6c75b19a78134d2e19dcbd6000000000000000000000000000000000000000000000000000000000000000a",
        "nonce": "0xcd",
        "accessList": []
      },
      "additionalContracts": [],
      "isFixedGasLimit": false
    },
    {
      "hash": "0xdbcf32e169cd68bb4792b1db4647421b8a45794373dcb2b1fe67ed1d27dae84f",
      "transactionType": "CALL",
      "contractName": null,
      "contractAddress": "0x56456228bEb884911fc5f344C5cfb633E087330e",
      "function": null,
      "arguments": null,
      "transaction": {
        "type": "0x02",
        "from": "0x64cbc2b36fd9dd66fe016181fabf30167a3818b2",
        "to": "0x56456228beb884911fc5f344c5cfb633e087330e",
        "gas": "0x1ae95",
        "value": "0x0",
        "data": "0xdf791e50000000000000000000000000dc3b5c84e3868328f867294c30cf696c7947cd690000000000000000000000005d9ee21eb431fb83d8988e7851ecde64848f27d8000000000000000000000000000000000000000000000000000000000000000a",
        "nonce": "0xce",
        "accessList": []
      },
      "additionalContracts": [],
      "isFixedGasLimit": false
    }
  ],
  "receipts": [
    {
      "transactionHash": "0x81f5bd8e968ee20ec33dfd94b525987fe23d356d8eb139ad3972e10fd5c06b03",
      "transactionIndex": "0x3",
      "blockHash": "0x820fda00f2639fec4e01e50f9827035dcac5bebdb13c2c369073dec79b09accf",
      "blockNumber": "0x23b8982",
      "from": "0x64cBC2b36fd9Dd66Fe016181fABF30167a3818B2",
      "to": null,
      "cumulativeGasUsed": "0xf4aa8",
      "gasUsed": "0x9e79c",
      "contractAddress": "0xdC3B5C84E3868328F867294c30cf696c7947Cd69",
      "logs": [
        {
          "address": "0xdC3B5C84E3868328F867294c30cf696c7947Cd69",
          "topics": [
            "0xddf252ad1be2c89b69c2b068fc378daa952ba7f163c4a11628f55a4df523b3ef",
            "0x0000000000000000000000000000000000000000000000000000000000000000",
            "0x00000000000000000000000064cbc2b36fd9dd66fe016181fabf30167a3818b2"
          ],
          "data": "0x0000000000000000000000000000000000000000000000000de0b6b3a7640000",
          "blockHash": "0x820fda00f2639fec4e01e50f9827035dcac5bebdb13c2c369073dec79b09accf",
          "blockNumber": "0x23b8982",
          "transactionHash": "0x81f5bd8e968ee20ec33dfd94b525987fe23d356d8eb139ad3972e10fd5c06b03",
          "transactionIndex": "0x3",
          "logIndex": "0xf",
          "removed": false
        },
        {
          "address": "0x0000000000000000000000000000000000001010",
          "topics": [
            "0x4dfe1bbbcf077ddc3e01291eea2d5c70c2b422b415d95645b9adcfd678cb1d63",
            "0x0000000000000000000000000000000000000000000000000000000000001010",
            "0x00000000000000000000000064cbc2b36fd9dd66fe016181fabf30167a3818b2",
            "0x000000000000000000000000c275dc8be39f50d12f66b6a63629c39da5bae5bd"
          ],
          "data": "0x00000000000000000000000000000000000000000000000000049cbc3093b6400000000000000000000000000000000000000000000000000170c0128f9dd2d00000000000000000000000000000000000000000000011da2e63e3bc2e194578000000000000000000000000000000000000000000000000016c23565f0a1c900000000000000000000000000000000000000000000011da2e6880785eacfbb8",
          "blockHash": "0x820fda00f2639fec4e01e50f9827035dcac5bebdb13c2c369073dec79b09accf",
          "blockNumber": "0x23b8982",
          "transactionHash": "0x81f5bd8e968ee20ec33dfd94b525987fe23d356d8eb139ad3972e10fd5c06b03",
          "transactionIndex": "0x3",
          "logIndex": "0x10",
          "removed": false
        }
      ],
      "status": "0x1",
      "logsBloom": "0x00000000000000000000000000000000000000000000000000000000000000000000000000000000000000000000000000008000002000000000000080000000000000008000000000000008000000800000000000002000040100000000000000000000020000000000000000000800000000000000000080000010000000000000000000000000000000000000000000000000000000000000000000000000200000000000000000000000000000000000000000000000000040000000004000000002000000000001000000000000000000000000000000100000000020000008000000000400000000000000000008000000000000000000000000100000",
      "type": "0x2",
      "effectiveGasPrice": "0x77359400"
    },
    {
      "transactionHash": "0xffc1ffe0662fc8d9449d5f061ea5fef33018324069336d8e1e986f90b5999162",
      "transactionIndex": "0x4",
      "blockHash": "0x820fda00f2639fec4e01e50f9827035dcac5bebdb13c2c369073dec79b09accf",
      "blockNumber": "0x23b8982",
      "from": "0x64cBC2b36fd9Dd66Fe016181fABF30167a3818B2",
      "to": "0x56456228bEb884911fc5f344C5cfb633E087330e",
      "cumulativeGasUsed": "0x10996e",
      "gasUsed": "0x14ec6",
      "contractAddress": null,
      "logs": [
        {
          "address": "0x5d9eE21Eb431FB83D8988E7851eCDE64848F27D8",
          "topics": [
            "0x8c5be1e5ebec7d5bd14f71427d1e84f3dd0314c0f7b2291e5b200ac8c7c3b925",
            "0x00000000000000000000000064cbc2b36fd9dd66fe016181fabf30167a3818b2",
            "0x00000000000000000000000056456228beb884911fc5f344c5cfb633e087330e"
          ],
          "data": "0x0000000000000000000000000000000000000000000000000de0b6b3a7640000",
          "blockHash": "0x820fda00f2639fec4e01e50f9827035dcac5bebdb13c2c369073dec79b09accf",
          "blockNumber": "0x23b8982",
          "transactionHash": "0xffc1ffe0662fc8d9449d5f061ea5fef33018324069336d8e1e986f90b5999162",
          "transactionIndex": "0x4",
          "logIndex": "0x11",
          "removed": false
        },
        {
          "address": "0xa7a75532701fe006a6C75b19A78134d2e19DcBD6",
          "topics": [
            "0x8c5be1e5ebec7d5bd14f71427d1e84f3dd0314c0f7b2291e5b200ac8c7c3b925",
            "0x00000000000000000000000064cbc2b36fd9dd66fe016181fabf30167a3818b2",
            "0x00000000000000000000000056456228beb884911fc5f344c5cfb633e087330e"
          ],
          "data": "0x0000000000000000000000000000000000000000000000000de0b6b3a7640000",
          "blockHash": "0x820fda00f2639fec4e01e50f9827035dcac5bebdb13c2c369073dec79b09accf",
          "blockNumber": "0x23b8982",
          "transactionHash": "0xffc1ffe0662fc8d9449d5f061ea5fef33018324069336d8e1e986f90b5999162",
          "transactionIndex": "0x4",
          "logIndex": "0x12",
          "removed": false
        },
        {
          "address": "0x0000000000000000000000000000000000001010",
          "topics": [
            "0x4dfe1bbbcf077ddc3e01291eea2d5c70c2b422b415d95645b9adcfd678cb1d63",
            "0x0000000000000000000000000000000000000000000000000000000000001010",
            "0x00000000000000000000000064cbc2b36fd9dd66fe016181fabf30167a3818b2",
            "0x000000000000000000000000c275dc8be39f50d12f66b6a63629c39da5bae5bd"
          ],
          "data": "0x00000000000000000000000000000000000000000000000000009be41a738ba0000000000000000000000000000000000000000000000000016c23565e6ba2d00000000000000000000000000000000000000000000011da2e6880785eacfbb8000000000000000000000000000000000000000000000000016b877243f817300000000000000000000000000000000000000000000011da2e691c5c79208758",
          "blockHash": "0x820fda00f2639fec4e01e50f9827035dcac5bebdb13c2c369073dec79b09accf",
          "blockNumber": "0x23b8982",
          "transactionHash": "0xffc1ffe0662fc8d9449d5f061ea5fef33018324069336d8e1e986f90b5999162",
          "transactionIndex": "0x4",
          "logIndex": "0x13",
          "removed": false
        }
      ],
      "status": "0x1",
      "logsBloom": "0x00000000000000000000000000000000000000000000000000000000000000000000000000002000000000000002000000008000042000000000000000200000000000000000000000000000000000800000000000002000040180000000000000010800000000000000000000000000000000000000000080000000000000000000000000004010000000000000000000000000000000000000000000000000220000000000000000000000000000000000000000000000000040000000004000000000000000000001000000000000000000000000000000300000000000000010000000000400000000000000000008000000000000000000000000100000",
      "type": "0x2",
      "effectiveGasPrice": "0x77359400"
    },
    {
      "transactionHash": "0xa58ec68c7597665a737a52dfca68f64e449bc0be5d12362111094ed3de8f1ca1",
      "transactionIndex": "0x5",
      "blockHash": "0x820fda00f2639fec4e01e50f9827035dcac5bebdb13c2c369073dec79b09accf",
      "blockNumber": "0x23b8982",
      "from": "0x64cBC2b36fd9Dd66Fe016181fABF30167a3818B2",
      "to": "0xdC3B5C84E3868328F867294c30cf696c7947Cd69",
      "cumulativeGasUsed": "0x114e22",
      "gasUsed": "0xb4b4",
      "contractAddress": null,
      "logs": [
        {
          "address": "0xdC3B5C84E3868328F867294c30cf696c7947Cd69",
          "topics": [
            "0x8c5be1e5ebec7d5bd14f71427d1e84f3dd0314c0f7b2291e5b200ac8c7c3b925",
            "0x00000000000000000000000064cbc2b36fd9dd66fe016181fabf30167a3818b2",
            "0x00000000000000000000000056456228beb884911fc5f344c5cfb633e087330e"
          ],
          "data": "0x0000000000000000000000000000000000000000000000000de0b6b3a7640000",
          "blockHash": "0x820fda00f2639fec4e01e50f9827035dcac5bebdb13c2c369073dec79b09accf",
          "blockNumber": "0x23b8982",
          "transactionHash": "0xa58ec68c7597665a737a52dfca68f64e449bc0be5d12362111094ed3de8f1ca1",
          "transactionIndex": "0x5",
          "logIndex": "0x14",
          "removed": false
        },
        {
          "address": "0x0000000000000000000000000000000000001010",
          "topics": [
            "0x4dfe1bbbcf077ddc3e01291eea2d5c70c2b422b415d95645b9adcfd678cb1d63",
            "0x0000000000000000000000000000000000000000000000000000000000001010",
            "0x00000000000000000000000064cbc2b36fd9dd66fe016181fabf30167a3818b2",
            "0x000000000000000000000000c275dc8be39f50d12f66b6a63629c39da5bae5bd"
          ],
          "data": "0x000000000000000000000000000000000000000000000000000054257db0c4c0000000000000000000000000000000000000000000000000016b877243e32ad00000000000000000000000000000000000000000000011da2e691c5c79208758000000000000000000000000000000000000000000000000016b334cc63266100000000000000000000000000000000000000000000011da2e697081f6d14c18",
          "blockHash": "0x820fda00f2639fec4e01e50f9827035dcac5bebdb13c2c369073dec79b09accf",
          "blockNumber": "0x23b8982",
          "transactionHash": "0xa58ec68c7597665a737a52dfca68f64e449bc0be5d12362111094ed3de8f1ca1",
          "transactionIndex": "0x5",
          "logIndex": "0x15",
          "removed": false
        }
      ],
      "status": "0x1",
      "logsBloom": "0x00000000000000000000000000000000000000000000000000000000000000000000000000000000000000000002000000008000042000000000000080200000000000008000000000000000000000800000000000002000040100000000000000000800000000000000000000000000000000000000000080000000000000000000000000000000000000000000000000000000000000000000000000000000220000000000000000000000000000000000000000000000000040000000004000000000000000000001000000000000000000000000000000100000000000000018000000000400000000000000000008000000000000000000000000100000",
      "type": "0x2",
      "effectiveGasPrice": "0x77359400"
    },
    {
      "transactionHash": "0x96f0e3f027a7545b06364260a37d4e6fe39cfec1cab2de6c80a9bee8850679ba",
      "transactionIndex": "0x6",
      "blockHash": "0x820fda00f2639fec4e01e50f9827035dcac5bebdb13c2c369073dec79b09accf",
      "blockNumber": "0x23b8982",
      "from": "0x64cBC2b36fd9Dd66Fe016181fABF30167a3818B2",
      "to": "0x56456228bEb884911fc5f344C5cfb633E087330e",
      "cumulativeGasUsed": "0x12a9fd",
      "gasUsed": "0x15bdb",
      "contractAddress": null,
      "logs": [
        {
          "address": "0xdC3B5C84E3868328F867294c30cf696c7947Cd69",
          "topics": [
            "0x8c5be1e5ebec7d5bd14f71427d1e84f3dd0314c0f7b2291e5b200ac8c7c3b925",
            "0x00000000000000000000000064cbc2b36fd9dd66fe016181fabf30167a3818b2",
            "0x00000000000000000000000056456228beb884911fc5f344c5cfb633e087330e"
          ],
          "data": "0x0000000000000000000000000000000000000000000000000de0b6b3a763fff6",
          "blockHash": "0x820fda00f2639fec4e01e50f9827035dcac5bebdb13c2c369073dec79b09accf",
          "blockNumber": "0x23b8982",
          "transactionHash": "0x96f0e3f027a7545b06364260a37d4e6fe39cfec1cab2de6c80a9bee8850679ba",
          "transactionIndex": "0x6",
          "logIndex": "0x16",
          "removed": false
        },
        {
          "address": "0xdC3B5C84E3868328F867294c30cf696c7947Cd69",
          "topics": [
            "0xddf252ad1be2c89b69c2b068fc378daa952ba7f163c4a11628f55a4df523b3ef",
            "0x00000000000000000000000064cbc2b36fd9dd66fe016181fabf30167a3818b2",
            "0x00000000000000000000000056456228beb884911fc5f344c5cfb633e087330e"
          ],
          "data": "0x000000000000000000000000000000000000000000000000000000000000000a",
          "blockHash": "0x820fda00f2639fec4e01e50f9827035dcac5bebdb13c2c369073dec79b09accf",
          "blockNumber": "0x23b8982",
          "transactionHash": "0x96f0e3f027a7545b06364260a37d4e6fe39cfec1cab2de6c80a9bee8850679ba",
          "transactionIndex": "0x6",
          "logIndex": "0x17",
          "removed": false
        },
        {
          "address": "0xa7a75532701fe006a6C75b19A78134d2e19DcBD6",
          "topics": [
            "0x8c5be1e5ebec7d5bd14f71427d1e84f3dd0314c0f7b2291e5b200ac8c7c3b925",
            "0x00000000000000000000000056456228beb884911fc5f344c5cfb633e087330e",
            "0x00000000000000000000000056456228beb884911fc5f344c5cfb633e087330e"
          ],
          "data": "0x0000000000000000000000000000000000000000000000000000000000000064",
          "blockHash": "0x820fda00f2639fec4e01e50f9827035dcac5bebdb13c2c369073dec79b09accf",
          "blockNumber": "0x23b8982",
          "transactionHash": "0x96f0e3f027a7545b06364260a37d4e6fe39cfec1cab2de6c80a9bee8850679ba",
          "transactionIndex": "0x6",
          "logIndex": "0x18",
          "removed": false
        },
        {
          "address": "0xa7a75532701fe006a6C75b19A78134d2e19DcBD6",
          "topics": [
            "0x8c5be1e5ebec7d5bd14f71427d1e84f3dd0314c0f7b2291e5b200ac8c7c3b925",
            "0x00000000000000000000000056456228beb884911fc5f344c5cfb633e087330e",
            "0x00000000000000000000000056456228beb884911fc5f344c5cfb633e087330e"
          ],
          "data": "0x0000000000000000000000000000000000000000000000000000000000000000",
          "blockHash": "0x820fda00f2639fec4e01e50f9827035dcac5bebdb13c2c369073dec79b09accf",
          "blockNumber": "0x23b8982",
          "transactionHash": "0x96f0e3f027a7545b06364260a37d4e6fe39cfec1cab2de6c80a9bee8850679ba",
          "transactionIndex": "0x6",
          "logIndex": "0x19",
          "removed": false
        },
        {
          "address": "0xa7a75532701fe006a6C75b19A78134d2e19DcBD6",
          "topics": [
            "0xddf252ad1be2c89b69c2b068fc378daa952ba7f163c4a11628f55a4df523b3ef",
            "0x00000000000000000000000056456228beb884911fc5f344c5cfb633e087330e",
            "0x00000000000000000000000064cbc2b36fd9dd66fe016181fabf30167a3818b2"
          ],
          "data": "0x0000000000000000000000000000000000000000000000000000000000000064",
          "blockHash": "0x820fda00f2639fec4e01e50f9827035dcac5bebdb13c2c369073dec79b09accf",
          "blockNumber": "0x23b8982",
          "transactionHash": "0x96f0e3f027a7545b06364260a37d4e6fe39cfec1cab2de6c80a9bee8850679ba",
          "transactionIndex": "0x6",
          "logIndex": "0x1a",
          "removed": false
        },
        {
          "address": "0x0000000000000000000000000000000000001010",
          "topics": [
            "0x4dfe1bbbcf077ddc3e01291eea2d5c70c2b422b415d95645b9adcfd678cb1d63",
            "0x0000000000000000000000000000000000000000000000000000000000001010",
            "0x00000000000000000000000064cbc2b36fd9dd66fe016181fabf30167a3818b2",
            "0x000000000000000000000000c275dc8be39f50d12f66b6a63629c39da5bae5bd"
          ],
          "data": "0x0000000000000000000000000000000000000000000000000000a1fb9a5bde50000000000000000000000000000000000000000000000000016b334cc6271ad00000000000000000000000000000000000000000000011da2e697081f6d14c18000000000000000000000000000000000000000000000000016a91512bcb3c800000000000000000000000000000000000000000000011da2e6a127d912d2a68",
          "blockHash": "0x820fda00f2639fec4e01e50f9827035dcac5bebdb13c2c369073dec79b09accf",
          "blockNumber": "0x23b8982",
          "transactionHash": "0x96f0e3f027a7545b06364260a37d4e6fe39cfec1cab2de6c80a9bee8850679ba",
          "transactionIndex": "0x6",
          "logIndex": "0x1b",
          "removed": false
        }
      ],
      "status": "0x1",
      "logsBloom": "0x00000000000000000000000000000000000000000000000000000000000000000000000000000000000000000002000000008000042000000000000080200000000000008000000000000008000000800000000000002000040180000000000000010800000000000000000000000000000000000000000080000010000000000000000000004000000000000000000000000000000000000000000000000000220000000000000000000000000000000000000000000000000040000000004000000002000000000001000000000000000000000000000000100000000000000018000000000400000000000000000008000000000000000000000000100000",
      "type": "0x2",
      "effectiveGasPrice": "0x77359400"
    },
    {
      "transactionHash": "0xdbcf32e169cd68bb4792b1db4647421b8a45794373dcb2b1fe67ed1d27dae84f",
      "transactionIndex": "0x7",
      "blockHash": "0x820fda00f2639fec4e01e50f9827035dcac5bebdb13c2c369073dec79b09accf",
      "blockNumber": "0x23b8982",
      "from": "0x64cBC2b36fd9Dd66Fe016181fABF30167a3818B2",
      "to": "0x56456228bEb884911fc5f344C5cfb633E087330e",
      "cumulativeGasUsed": "0x13d068",
      "gasUsed": "0x1266b",
      "contractAddress": null,
      "logs": [
        {
          "address": "0xdC3B5C84E3868328F867294c30cf696c7947Cd69",
          "topics": [
            "0x8c5be1e5ebec7d5bd14f71427d1e84f3dd0314c0f7b2291e5b200ac8c7c3b925",
            "0x00000000000000000000000064cbc2b36fd9dd66fe016181fabf30167a3818b2",
            "0x00000000000000000000000056456228beb884911fc5f344c5cfb633e087330e"
          ],
          "data": "0x0000000000000000000000000000000000000000000000000de0b6b3a763ffec",
          "blockHash": "0x820fda00f2639fec4e01e50f9827035dcac5bebdb13c2c369073dec79b09accf",
          "blockNumber": "0x23b8982",
          "transactionHash": "0xdbcf32e169cd68bb4792b1db4647421b8a45794373dcb2b1fe67ed1d27dae84f",
          "transactionIndex": "0x7",
          "logIndex": "0x1c",
          "removed": false
        },
        {
          "address": "0xdC3B5C84E3868328F867294c30cf696c7947Cd69",
          "topics": [
            "0xddf252ad1be2c89b69c2b068fc378daa952ba7f163c4a11628f55a4df523b3ef",
            "0x00000000000000000000000064cbc2b36fd9dd66fe016181fabf30167a3818b2",
            "0x00000000000000000000000056456228beb884911fc5f344c5cfb633e087330e"
          ],
          "data": "0x000000000000000000000000000000000000000000000000000000000000000a",
          "blockHash": "0x820fda00f2639fec4e01e50f9827035dcac5bebdb13c2c369073dec79b09accf",
          "blockNumber": "0x23b8982",
          "transactionHash": "0xdbcf32e169cd68bb4792b1db4647421b8a45794373dcb2b1fe67ed1d27dae84f",
          "transactionIndex": "0x7",
          "logIndex": "0x1d",
          "removed": false
        },
        {
          "address": "0x5d9eE21Eb431FB83D8988E7851eCDE64848F27D8",
          "topics": [
            "0x8c5be1e5ebec7d5bd14f71427d1e84f3dd0314c0f7b2291e5b200ac8c7c3b925",
            "0x00000000000000000000000056456228beb884911fc5f344c5cfb633e087330e",
            "0x00000000000000000000000056456228beb884911fc5f344c5cfb633e087330e"
          ],
          "data": "0x0000000000000000000000000000000000000000000000000000000000000064",
          "blockHash": "0x820fda00f2639fec4e01e50f9827035dcac5bebdb13c2c369073dec79b09accf",
          "blockNumber": "0x23b8982",
          "transactionHash": "0xdbcf32e169cd68bb4792b1db4647421b8a45794373dcb2b1fe67ed1d27dae84f",
          "transactionIndex": "0x7",
          "logIndex": "0x1e",
          "removed": false
        },
        {
          "address": "0x5d9eE21Eb431FB83D8988E7851eCDE64848F27D8",
          "topics": [
            "0x8c5be1e5ebec7d5bd14f71427d1e84f3dd0314c0f7b2291e5b200ac8c7c3b925",
            "0x00000000000000000000000056456228beb884911fc5f344c5cfb633e087330e",
            "0x00000000000000000000000056456228beb884911fc5f344c5cfb633e087330e"
          ],
          "data": "0x0000000000000000000000000000000000000000000000000000000000000000",
          "blockHash": "0x820fda00f2639fec4e01e50f9827035dcac5bebdb13c2c369073dec79b09accf",
          "blockNumber": "0x23b8982",
          "transactionHash": "0xdbcf32e169cd68bb4792b1db4647421b8a45794373dcb2b1fe67ed1d27dae84f",
          "transactionIndex": "0x7",
          "logIndex": "0x1f",
          "removed": false
        },
        {
          "address": "0x5d9eE21Eb431FB83D8988E7851eCDE64848F27D8",
          "topics": [
            "0xddf252ad1be2c89b69c2b068fc378daa952ba7f163c4a11628f55a4df523b3ef",
            "0x00000000000000000000000056456228beb884911fc5f344c5cfb633e087330e",
            "0x00000000000000000000000064cbc2b36fd9dd66fe016181fabf30167a3818b2"
          ],
          "data": "0x0000000000000000000000000000000000000000000000000000000000000064",
          "blockHash": "0x820fda00f2639fec4e01e50f9827035dcac5bebdb13c2c369073dec79b09accf",
          "blockNumber": "0x23b8982",
          "transactionHash": "0xdbcf32e169cd68bb4792b1db4647421b8a45794373dcb2b1fe67ed1d27dae84f",
          "transactionIndex": "0x7",
          "logIndex": "0x20",
          "removed": false
        },
        {
          "address": "0x0000000000000000000000000000000000001010",
          "topics": [
            "0x4dfe1bbbcf077ddc3e01291eea2d5c70c2b422b415d95645b9adcfd678cb1d63",
            "0x0000000000000000000000000000000000000000000000000000000000001010",
            "0x00000000000000000000000064cbc2b36fd9dd66fe016181fabf30167a3818b2",
            "0x000000000000000000000000c275dc8be39f50d12f66b6a63629c39da5bae5bd"
          ],
          "data": "0x000000000000000000000000000000000000000000000000000089195b4a7550000000000000000000000000000000000000000000000000016a91512bb57ed00000000000000000000000000000000000000000000011da2e6a127d912d2a68000000000000000000000000000000000000000000000000016a0837d06b09800000000000000000000000000000000000000000000011da2e6a9b96ec779fb8",
          "blockHash": "0x820fda00f2639fec4e01e50f9827035dcac5bebdb13c2c369073dec79b09accf",
          "blockNumber": "0x23b8982",
          "transactionHash": "0xdbcf32e169cd68bb4792b1db4647421b8a45794373dcb2b1fe67ed1d27dae84f",
          "transactionIndex": "0x7",
          "logIndex": "0x21",
          "removed": false
        }
      ],
      "status": "0x1",
      "logsBloom": "0x00000000000000000000000000000000000000000000000000000000000000000000000000002000000000000002000000008000042000000000000080200000000000008000000000000008000000800000000000002000040100000000000000000800000000000000000000000000000000000000000080000010000000000000000000000010000000000000000000000000000000000000000000000000220000000000000000000000000000000000000000000000000040000000004000000002000000000001000000000000000000000000000000300000000000000018000000000400000000000000000008000000000000000000000000100000",
      "type": "0x2",
      "effectiveGasPrice": "0x77359400"
    }
  ],
  "libraries": [],
  "pending": [],
  "returns": {},
  "timestamp": 1688226415,
  "chain": 80001,
  "multi": false,
  "commit": "a4c9b25"
}