{
  "transactions": [
    {
      "hash": "0x07f0b15a0745fcf01662bdb284885da8ea28433eeaf1e48572073ebad2d301a4",
      "transactionType": "CREATE",
      "contractName": "Attacker",
      "contractAddress": "0xB54B38Eb18DA558b10983532D7f278AA50d10016",
      "function": null,
      "arguments": null,
      "transaction": {
        "type": "0x02",
        "from": "0x64cbc2b36fd9dd66fe016181fabf30167a3818b2",
        "gas": "0x2cb78",
        "value": "0x0",
        "data": "0x608060405234801561001057600080fd5b50610196806100206000396000f3fe608060405234801561001057600080fd5b50600436106100365760003560e01c806398d078b41461003b578063d018db3e14610050575b600080fd5b61004e6100493660046100f5565b610063565b005b61004e61005e36600461010e565b610087565b80600a036100845760405163569d45cf60e11b815260040160405180910390fd5b50565b6000819050806001600160a01b031663251436386040518163ffffffff1660e01b81526004016020604051808303816000875af11580156100cc573d6000803e3d6000fd5b505050506040513d601f19601f820116820180604052508101906100f0919061013e565b505050565b60006020828403121561010757600080fd5b5035919050565b60006020828403121561012057600080fd5b81356001600160a01b038116811461013757600080fd5b9392505050565b60006020828403121561015057600080fd5b8151801515811461013757600080fdfea2646970667358221220753ca91343de0ca5a28dce91dd8d35d560b6d16f3111f56b7d90ccc5395d7d0664736f6c63430008120033",
        "nonce": "0xdf",
        "accessList": []
      },
      "additionalContracts": [],
      "isFixedGasLimit": false
    },
    {
      "hash": "0x4f228ad040daef0afb928723aade2cd4fc3f2a0ed9fe4a73f4d0cdba7150190d",
      "transactionType": "CALL",
      "contractName": "Attacker",
      "contractAddress": "0xB54B38Eb18DA558b10983532D7f278AA50d10016",
      "function": "attack(address)",
      "arguments": [
        "0x93EaA467e3AF0a94799CbA7E72725ec3eE0797d3"
      ],
      "transaction": {
        "type": "0x02",
        "from": "0x64cbc2b36fd9dd66fe016181fabf30167a3818b2",
        "to": "0xb54b38eb18da558b10983532d7f278aa50d10016",
        "gas": "0x21ae4",
        "value": "0x0",
        "data": "0xd018db3e00000000000000000000000093eaa467e3af0a94799cba7e72725ec3ee0797d3",
        "nonce": "0xe0",
        "accessList": []
      },
      "additionalContracts": [],
      "isFixedGasLimit": false
    }
  ],
  "receipts": [
    {
      "transactionHash": "0x07f0b15a0745fcf01662bdb284885da8ea28433eeaf1e48572073ebad2d301a4",
      "transactionIndex": "0x3",
      "blockHash": "0x69efac4f0904407b293467865cd4f5073d12b33db797f17b8285244ef5ccf330",
      "blockNumber": "0x23c0207",
      "from": "0x64cBC2b36fd9Dd66Fe016181fABF30167a3818B2",
      "to": null,
      "cumulativeGasUsed": "0xb8048",
      "gasUsed": "0x2265d",
      "contractAddress": "0xB54B38Eb18DA558b10983532D7f278AA50d10016",
      "logs": [
        {
          "address": "0x0000000000000000000000000000000000001010",
          "topics": [
            "0x4dfe1bbbcf077ddc3e01291eea2d5c70c2b422b415d95645b9adcfd678cb1d63",
            "0x0000000000000000000000000000000000000000000000000000000000001010",
            "0x00000000000000000000000064cbc2b36fd9dd66fe016181fabf30167a3818b2",
            "0x0000000000000000000000003a22c8bc68e98b0faf40f349dd2b2890fae01484"
          ],
          "data": "0x000000000000000000000000000000000000000000000000000100486a4e848d0000000000000000000000000000000000000000000000000133ef00bc390515000000000000000000000000000000000000000000000c570ac23a5eece497730000000000000000000000000000000000000000000000000132eeb851ea8088000000000000000000000000000000000000000000000c570ac33aa757331c00",
          "blockHash": "0x69efac4f0904407b293467865cd4f5073d12b33db797f17b8285244ef5ccf330",
          "blockNumber": "0x23c0207",
          "transactionHash": "0x07f0b15a0745fcf01662bdb284885da8ea28433eeaf1e48572073ebad2d301a4",
          "transactionIndex": "0x3",
          "logIndex": "0xe",
          "removed": false
        }
      ],
      "status": "0x1",
      "logsBloom": "0x00000000000000000000000000000000000000000000000000000000000000000000000000000000000000000000000000008000000000000000000000008000000000000000000000000000000000800000000000002000000100000000000000000000000000000000000000000000000000000000000080000000000000000000000000000000000000000000000000000000000000000000000000000000200000000000000000080000000000000000000000000000000000000000004000000000000000000001000000000100000000000000000000100000000000000000000000000400000000000000000008000000000000000000000000100000",
      "type": "0x2",
      "effectiveGasPrice": "0x77359400"
    },
    {
      "transactionHash": "0x4f228ad040daef0afb928723aade2cd4fc3f2a0ed9fe4a73f4d0cdba7150190d",
      "transactionIndex": "0x4",
      "blockHash": "0x69efac4f0904407b293467865cd4f5073d12b33db797f17b8285244ef5ccf330",
      "blockNumber": "0x23c0207",
      "from": "0x64cBC2b36fd9Dd66Fe016181fABF30167a3818B2",
      "to": "0xB54B38Eb18DA558b10983532D7f278AA50d10016",
      "cumulativeGasUsed": "0xd066e",
      "gasUsed": "0x18626",
      "contractAddress": null,
      "logs": [
        {
          "address": "0x0000000000000000000000000000000000001010",
          "topics": [
            "0x4dfe1bbbcf077ddc3e01291eea2d5c70c2b422b415d95645b9adcfd678cb1d63",
            "0x0000000000000000000000000000000000000000000000000000000000001010",
            "0x00000000000000000000000064cbc2b36fd9dd66fe016181fabf30167a3818b2",
            "0x0000000000000000000000003a22c8bc68e98b0faf40f349dd2b2890fae01484"
          ],
          "data": "0x0000000000000000000000000000000000000000000000000000b5ad51551bc60000000000000000000000000000000000000000000000000132eeb851ca4115000000000000000000000000000000000000000000000c570ac33aa757331c000000000000000000000000000000000000000000000000000132390b0075254f000000000000000000000000000000000000000000000c570ac3f054a88837c6",
          "blockHash": "0x69efac4f0904407b293467865cd4f5073d12b33db797f17b8285244ef5ccf330",
          "blockNumber": "0x23c0207",
          "transactionHash": "0x4f228ad040daef0afb928723aade2cd4fc3f2a0ed9fe4a73f4d0cdba7150190d",
          "transactionIndex": "0x4",
          "logIndex": "0xf",
          "removed": false
        }
      ],
      "status": "0x1",
      "logsBloom": "0x00000000000000000000000000000000000000000000000000000000000000000000000000000000000000000000000000008000000000000000000000008000000000000000000000000000000000800000000000002000000100000000000000000000000000000000000000000000000000000000000080000000000000000000000000000000000000000000000000000000000000000000000000000000200000000000000000080000000000000000000000000000000000000000004000000000000000000001000000000100000000000000000000100000000000000000000000000400000000000000000008000000000000000000000000100000",
      "type": "0x2",
      "effectiveGasPrice": "0x77359400"
    }
  ],
  "libraries": [],
  "pending": [],
  "returns": {},
  "timestamp": 1688315817,
  "chain": 80001,
  "multi": false,
  "commit": "1c42bbf"
}