{
  "transactions": [
    {
      "hash": "0x07f0b15a0745fcf01662bdb284885da8ea28433eeaf1e48572073ebad2d301a4",
      "transactionType": "CREATE",
      "contractName": "Attacker",
      "contractAddress": "0xB54B38Eb18DA558b10983532D7f278AA50d10016",
      "function": null,
      "arguments": null,
      "transaction": {
        "type": "0x02",
        "from": "0x64cbc2b36fd9dd66fe016181fabf30167a3818b2",
        "gas": "0x2cb78",
        "value": "0x0",
        "data": "0x608060405234801561001057600080fd5b50610196806100206000396000f3fe608060405234801561001057600080fd5b50600436106100365760003560e01c806398d078b41461003b578063d018db3e14610050575b600080fd5b61004e6100493660046100f5565b610063565b005b61004e61005e36600461010e565b610087565b80600a036100845760405163569d45cf60e11b815260040160405180910390fd5b50565b6000819050806001600160a01b031663251436386040518163ffffffff1660e01b81526004016020604051808303816000875af11580156100cc573d6000803e3d6000fd5b505050506040513d601f19601f820116820180604052508101906100f0919061013e565b505050565b60006020828403121561010757600080fd5b5035919050565b60006020828403121561012057600080fd5b81356001600160a01b038116811461013757600080fd5b9392505050565b60006020828403121561015057600080fd5b8151801515811461013757600080fdfea2646970667358221220753ca91343de0ca5a28dce91dd8d35d560b6d16f3111f56b7d90ccc5395d7d0664736f6c63430008120033",
        "nonce": "0xdf",
        "accessList": []
      },
      "additionalContracts": [],
      "isFixedGasLimit": false
    },
    {
      "hash": "0x4f228ad040daef0afb928723aade2cd4fc3f2a0ed9fe4a73f4d0cdba7150190d",
      "transactionType": "CALL",
      "contractName": "Attacker",
      "contractAddress": "0xB54B38Eb18DA558b10983532D7f278AA50d10016",
      "function": "attack(address)",
      "arguments": [
        "0x93EaA467e3AF0a94799CbA7E72725ec3eE0797d3"
      ],
      "transaction": {
        "type": "0x02",
        "from": "0x64cbc2b36fd9dd66fe016181fabf30167a3818b2",
        "to": "0xb54b38eb18da558b10983532d7f278aa50d10016",
        "gas": "0x21ae4",
        "value": "0x0",
        "data": "0xd018db3e00000000000000000000000093eaa467e3af0a94799cba7e72725ec3ee0797d3",
        "nonce": "0xe0",
        "accessList": []
      },
      "additionalContracts": [],
      "isFixedGasLimit": false
    }
  ],
  "receipts": [],
  "libraries": [],
  "pending": [
    "0x07f0b15a0745fcf01662bdb284885da8ea28433eeaf1e48572073ebad2d301a4",
    "0x4f228ad040daef0afb928723aade2cd4fc3f2a0ed9fe4a73f4d0cdba7150190d"
  ],
  "returns": {},
  "timestamp": 1688315805,
  "chain": 80001,
  "multi": false,
  "commit": "1c42bbf"
}