{
  "transactions": [
    {
      "hash": "0x482de94d4f0e85e7aa17b680d0af580453ade0815c529cd2a0b7d8eee0135acd",
      "transactionType": "CREATE",
      "contractName": "AttackerBuilding",
      "contractAddress": "0x92559e50508dF6771a39Dd831d5d9A988A91aA7E",
      "function": null,
      "arguments": null,
      "transaction": {
        "type": "0x02",
        "from": "0x64cbc2b36fd9dd66fe016181fabf30167a3818b2",
        "gas": "0x2e344",
        "value": "0x0",
        "data": "0x608060405234801561001057600080fd5b506101ac806100206000396000f3fe6080604052600436106100295760003560e01c80635f9a4bca1461002e578063d018db3e14610062575b600080fd5b34801561003a57600080fd5b5061004e610049366004610106565b610077565b604051901515815260200160405180910390f35b61007561007036600461011f565b6100a6565b005b6000805460000361009e576000805490806100918361014f565b9091555060009392505050565b506001919050565b604051633b669c4d60e21b81526000600482015281906001600160a01b0382169063ed9a713490602401600060405180830381600087803b1580156100ea57600080fd5b505af11580156100fe573d6000803e3d6000fd5b505050505050565b60006020828403121561011857600080fd5b5035919050565b60006020828403121561013157600080fd5b81356001600160a01b038116811461014857600080fd5b9392505050565b60006001820161016f57634e487b7160e01b600052601160045260246000fd5b506001019056fea2646970667358221220c458bfce1a0a64eac895feb55418802583efe1492081e9dd8c77af6b8d46a45264736f6c63430008120033",
        "nonce": "0x3e",
        "accessList": []
      },
      "additionalContracts": [],
      "isFixedGasLimit": false
    },
    {
      "hash": "0xe1f39a4bfb7a25b79c5e3f7a91bebdc9b1138983a12e9291cb981948ccbdbfa6",
      "transactionType": "CALL",
      "contractName": "AttackerBuilding",
      "contractAddress": "0x92559e50508dF6771a39Dd831d5d9A988A91aA7E",
      "function": "attack(address)",
      "arguments": [
        "0xbDeAb98ef022EfE1f29A4A882784E0fb4F4D6205"
      ],
      "transaction": {
        "type": "0x02",
        "from": "0x64cbc2b36fd9dd66fe016181fabf30167a3818b2",
        "to": "0x92559e50508df6771a39dd831d5d9a988a91aa7e",
        "gas": "0x1a068",
        "value": "0x0",
        "data": "0xd018db3e000000000000000000000000bdeab98ef022efe1f29a4a882784e0fb4f4d6205",
        "nonce": "0x3f",
        "accessList": []
      },
      "additionalContracts": [],
      "isFixedGasLimit": false
    }
  ],
  "receipts": [
    {
      "transactionHash": "0x482de94d4f0e85e7aa17b680d0af580453ade0815c529cd2a0b7d8eee0135acd",
      "transactionIndex": "0x2",
      "blockHash": "0x5f6f7386587df76ed0b460dc4fe24afc8e41e0c3f864b8388b93b49458bc7908",
      "blockNumber": "0x227d25b",
      "from": "0x64cBC2b36fd9Dd66Fe016181fABF30167a3818B2",
      "to": null,
      "cumulativeGasUsed": "0x2dcbb",
      "gasUsed": "0x238ab",
      "contractAddress": "0x92559e50508dF6771a39Dd831d5d9A988A91aA7E",
      "logs": [
        {
          "address": "0x0000000000000000000000000000000000001010",
          "topics": [
            "0x4dfe1bbbcf077ddc3e01291eea2d5c70c2b422b415d95645b9adcfd678cb1d63",
            "0x0000000000000000000000000000000000000000000000000000000000001010",
            "0x00000000000000000000000064cbc2b36fd9dd66fe016181fabf30167a3818b2",
            "0x000000000000000000000000c26880a0af2ea0c7e8130e6ec47af756465452e8"
          ],
          "data": "0x00000000000000000000000000000000000000000000000000039ed2c3eef7500000000000000000000000000000000000000000000000000223b19277f06258000000000000000000000000000000000000000000001f901e3e2e84c59dd83f000000000000000000000000000000000000000000000000022012bfb4016b08000000000000000000000000000000000000000000001f901e41cd57898ccf8f",
          "blockHash": "0x5f6f7386587df76ed0b460dc4fe24afc8e41e0c3f864b8388b93b49458bc7908",
          "blockNumber": "0x227d25b",
          "transactionHash": "0x482de94d4f0e85e7aa17b680d0af580453ade0815c529cd2a0b7d8eee0135acd",
          "transactionIndex": "0x2",
          "logIndex": "0x4",
          "removed": false
        }
      ],
      "status": "0x1",
      "logsBloom": "0x00000000000000020000000000000000000000000000000000000000000000000000000000000000000000000000000000008000000000000000000000000000000000000000000000000000000000800000000000002000000100000000000000000000000000000000000000000000000000000000000080000000000000000000000000000000000000000000000000000000000000000000000000000000200000000000000020000000000000000001000000000000000000000000004000000000000000000001000000000000000000000000000000100000000000000000000000000400000000000000000008000000000000000000000000100000",
      "type": "0x2",
      "effectiveGasPrice": "0x1a13b8600"
    },
    {
      "transactionHash": "0xe1f39a4bfb7a25b79c5e3f7a91bebdc9b1138983a12e9291cb981948ccbdbfa6",
      "transactionIndex": "0x3",
      "blockHash": "0x5f6f7386587df76ed0b460dc4fe24afc8e41e0c3f864b8388b93b49458bc7908",
      "blockNumber": "0x227d25b",
      "from": "0x64cBC2b36fd9Dd66Fe016181fABF30167a3818B2",
      "to": "0x92559e50508dF6771a39Dd831d5d9A988A91aA7E",
      "cumulativeGasUsed": "0x3f974",
      "gasUsed": "0x11cb9",
      "contractAddress": null,
      "logs": [
        {
          "address": "0x0000000000000000000000000000000000001010",
          "topics": [
            "0x4dfe1bbbcf077ddc3e01291eea2d5c70c2b422b415d95645b9adcfd678cb1d63",
            "0x0000000000000000000000000000000000000000000000000000000000001010",
            "0x00000000000000000000000064cbc2b36fd9dd66fe016181fabf30167a3818b2",
            "0x000000000000000000000000c26880a0af2ea0c7e8130e6ec47af756465452e8"
          ],
          "data": "0x0000000000000000000000000000000000000000000000000001d00b8c9a0a70000000000000000000000000000000000000000000000000022012bfb3dde058000000000000000000000000000000000000000000001f901e41cd57898ccf8f000000000000000000000000000000000000000000000000021e42b42743d5e8000000000000000000000000000000000000000000001f901e439d631626d9ff",
          "blockHash": "0x5f6f7386587df76ed0b460dc4fe24afc8e41e0c3f864b8388b93b49458bc7908",
          "blockNumber": "0x227d25b",
          "transactionHash": "0xe1f39a4bfb7a25b79c5e3f7a91bebdc9b1138983a12e9291cb981948ccbdbfa6",
          "transactionIndex": "0x3",
          "logIndex": "0x5",
          "removed": false
        }
      ],
      "status": "0x1",
      "logsBloom": "0x00000000000000020000000000000000000000000000000000000000000000000000000000000000000000000000000000008000000000000000000000000000000000000000000000000000000000800000000000002000000100000000000000000000000000000000000000000000000000000000000080000000000000000000000000000000000000000000000000000000000000000000000000000000200000000000000020000000000000000001000000000000000000000000004000000000000000000001000000000000000000000000000000100000000000000000000000000400000000000000000008000000000000000000000000100000",
      "type": "0x2",
      "effectiveGasPrice": "0x1a13b8600"
    }
  ],
  "libraries": [],
  "pending": [],
  "returns": {},
  "timestamp": 1685310371,
  "chain": 80001,
  "multi": false,
  "commit": "ed4bfc9"
}